:100000000C9434000C9449000C9449000C94490061
:100010000C9449000C9449000C9449000C9449003C
:100020000C9449000C9449000C9449000C9449002C
:100030000C9449000C9449000C9449000C9449001C
:100040000C9449000C9449000C9449000C9449000C
:100050000C9449000C9449000C9449000C944900FC
:100060000C9449000C94490011241FBECFEFD8E036
:10007000DEBFCDBF11E0A0E0B1E0E8ECF9E002C0E6
:1000800005900D92A432B107D9F70E945D010C943E
:10009000E2040C940000E0ECF0E09583848310828D
:1000A00088E9818386E082830895209A8FEB92E12C
:1000B0000197F1F700C00000209887EC90E00197CD
:1000C000F1F700C0000083B1809581700895FC01B4
:1000D000DB01189BFECF1899FECF90E120E030E0C5
:1000E000189BFECF85ED8A95F1F70000220F331F94
:1000F000189921601899FECF915091F790E140E056
:1001000050E0189BFECF85ED8A95F1F70000440F73
:10011000551F189941601899FECF915091F798E0BA
:1001200070E0189BFECF85ED8A95F1F70000770F00
:10013000189971601899FECF915099F711965C93B8
:100140004E9331832083932F920F940F950F79173D
:1001500031F087EE93E08D939C9391838083089593
:1001600080E091E00895611102C05C9801C05C9A42
:100170009BB1907F282F22952F70922B9BB995E0F1
:100180009A95F1F700005D9A95E09A95F1F70000D5
:100190005D9890EF9A95F1F79BB1907F282F2F7083
:1001A000922B9BB995E09A95F1F700005D9A95E046
:1001B0009A95F1F700005D9890EF9A95F1F761112B
:1001C00008C0843030F48FE39FE10197F1F700C05D
:1001D0000000089561E00E94B30081E090E008957E
:1001E000549A559A8AB18F608AB95C985D982FEFBE
:1001F00089EF90E0215080409040E1F700C000007E
:100200008BB1807F83608BB925E02A95F1F70000E0
:100210005D9A85E08A95F1F700005D9890EF9A95D8
:10022000F1F78FE19EE40197F1F700C0000095E03F
:100230009A95F1F700005D9A25E02A95F1F7000004
:100240005D9880EF8A95F1F78FE193E00197F1F7E0
:1002500000C0000095E09A95F1F700005D9A25E056
:100260002A95F1F700005D9880EF8A95F1F78BB140
:10027000807F82608BB995E09A95F1F700005D9AD6
:1002800025E02A95F1F700005D9880EF8A95F1F757
:1002900060E088E20E94B30060E088E00E94B30062
:1002A00060E081E00E94B30060E08CE00E94B30057
:1002B00060E080E80E94B3000895CF93DF9300D000
:1002C00000D0CDB7DEB71A8219821C821B820E9431
:1002D000F0000E94B000C82ED92E87E690E00E9460
:1002E0004B000F2EFEE0EF2EF1E0FF2EF02D09E186
:1002F00011E00E945500813039F4BE016D5F7F4FDF
:10030000CE0101960E94670060E081E00E94B30088
:100310004B815C819A01ADECBCEC0E94F901969591
:10032000879596958795969587959C01220F331F03
:10033000880F991F880F991F880F991F820F931F8D
:100340009A01281B390BC9019F932F939A010E9490
:10035000F9019695879596958795969587959F939C
:100360008F93FF92EF92DF92CF920E94080260E09B
:1003700080EC0E94B30049815A819A01ADECBCEC3B
:100380000E94F901969587959695879596958795FC
:100390009C01220F331F880F991F880F991F880F08
:1003A000991F820F931F9A01281B390BC9019F9334
:1003B0002F939A010E94F9019695879596958795B6
:1003C000969587959F938F931F930F93DF92CF926C
:1003D0000E9408023FEF81EE94E03150804090404F
:1003E000E1F700C000000FB6F894DEBF0FBECDBF2E
:1003F00080CFA29FB001B39FC001A39F700D811D4C
:100400001124911DB29F700D811D1124911D08951D
:10041000A0E0B0E0EEE0F2E00C94BB04AE01475F78
:100420005F4F6F8178858D819E810E941A02E2E084
:100430000C94D704ABE0B0E0E0E2F2E00C94AB0443
:100440006C017B018A01FC0117821682838181FF86
:10045000CCC1CE0101963C01F6019381F70193FDD9
:10046000859193FF81917F01882309F4BAC1853278
:1004700039F493FD859193FF81917F01853229F4B1
:10048000B60190E00E941104E7CF912C212C312C71
:10049000FFE1F315D8F08B3279F038F4803279F03F
:1004A0008332A1F4232D20611DC08D3261F0803391
:1004B00069F4232D216016C0832D8260382EE32D30
:1004C000E4603E2E2AC0F32DF8601DC037FC2DC01D
:1004D00020ED280F2A3040F08E32B9F436FC81C16D
:1004E000232D2064322E19C036FE06C08AE0989E65
:1004F000200D1124922E11C0EAE02E9E200D112411
:10050000222EF32DF0623F2E08C08C3621F4832D6D
:100510008068382E02C0883641F4F70193FD85913A
:1005200093FF81917F018111B3CF982F9F7D9554C7
:10053000933028F40C5F1F4F9FE399830DC08336DF
:1005400031F0833771F0833509F059C021C0F801CB
:10055000808189830E5F1F4F88248394912C5301DF
:1005600013C02801F2E04F0E511CF801A080B180A9
:1005700036FE03C0692D70E002C06FEF7FEFC5014A
:100580000E9406044C018201F32DFF773F2E16C016
:10059000280122E0420E511CF801A080B18036FEF5
:1005A00003C0692D70E002C06FEF7FEFC5010E94AC
:1005B000FB034C01F32DF0683F2E820133FC1BC07E
:1005C000822D90E088169906B0F4B60180E290E0A2
:1005D0000E9411042A94F4CFF50137FC859137FE6F
:1005E00081915F01B60190E00E94110421102A94CC
:1005F00021E0821A91088114910471F7E8C08436D1
:1006000011F0893641F5F80137FE07C0608171812C
:10061000828193810C5F1F4F08C060817181072E1A
:10062000000C880B990B0E5F1F4FF32DFF763F2EAA
:1006300097FF09C090958095709561957F4F8F4F7A
:100640009F4FF0683F2E2AE030E0A3010E944D0446
:10065000882E861845C0853731F4232D2F7EB22E83
:100660002AE030E025C0932D997FB92E8F36C1F056
:1006700018F4883579F0B5C0803719F0883721F043
:10068000B0C0E92FE061BE2EB4FE0DC0FB2DF460BA
:10069000BF2E09C034FE0AC0292F2660B22E06C024
:1006A00028E030E005C020E130E002C020E132E087
:1006B000F801B7FE07C060817181828193810C5F70
:1006C0001F4F06C06081718180E090E00E5F1F4F78
:1006D000A3010E944D04882E8618FB2DFF773F2E24
:1006E00036FE0DC0232D2E7FA22E891458F434FE21
:1006F0000BC032FC09C0832D8E7EA82E05C0B82CFD
:10070000A32C03C0B82C01C0B92CA4FE0FC0FE015D
:10071000E80DF11D8081803321F49A2D997EA92E58
:1007200009C0A2FE06C0B394B39404C08A2D867893
:1007300009F0B394A3FC11C0A0FE06C0B21488F463
:10074000280C922C9B180EC0B21460F4B60180E203
:1007500090E00E941104B394F7CFB21418F42B1850
:1007600002C0982C212CA4FE10C0B60180E390E0BA
:100770000E941104A2FE17C0A1FC03C088E790E00C
:1007800002C088E590E0B6010CC08A2D867859F049
:10079000A1FE02C08BE201C080E2A7FC8DE2B6019F
:1007A00090E00E941104891438F4B60180E390E0CF
:1007B0000E9411049A94F7CF8A94F301E80DF11D79
:1007C0008081B60190E00E9411048110F5CF2220B3
:1007D00009F442CEB60180E290E00E9411042A940E
:1007E000F6CFF6018681978102C08FEF9FEF2B969F
:1007F000E2E10C94C704FC010590615070400110C7
:10080000D8F7809590958E0F9F1F0895FC01615039
:10081000704001900110D8F7809590958E0F9F1F22
:1008200008950F931F93CF93DF93FB01238121FD45
:1008300003C08FEF9FEF2CC022FF16C04681578167
:10084000248135814217530744F4A081B1819D0171
:100850002F5F3F4F318320838C93268137812F5F19
:100860003F4F3783268314C08B01EC01FB010084CA
:10087000F185E02D0995892BE1F6D80116968D9129
:100880009C911797019617969C938E931697CE017D
:10089000DF91CF911F910F910895FA01AA27283077
:1008A00051F1203181F1E8946F936E7F6E5F7F4F3D
:1008B0008F4F9F4FAF4FB1E03ED0B4E03CD0670FB9
:1008C000781F891F9A1FA11D680F791F8A1F911D0C
:1008D000A11D6A0F711D811D911DA11D20D009F45C
:1008E00068943F912AE0269F11243019305D31939E
:1008F000DEF6CF010895462F4770405D4193B3E087
:100900000FD0C9F7F6CF462F4F70405D4A3318F02D
:10091000495D31FD4052419302D0A9F7EACFB4E0DE
:10092000A6959795879577956795BA95C9F7009796
:100930006105710508959B01AC010A2E0694579537
:10094000479537952795BA95C9F7620F731F841F8E
:10095000951FA01D08952F923F924F925F926F9224
:100960007F928F929F92AF92BF92CF92DF92EF923F
:10097000FF920F931F93CF93DF93CDB7DEB7CA1BC0
:10098000DB0B0FB6F894DEBF0FBECDBF09942A88EB
:10099000398848885F846E847D848C849B84AA8493
:1009A000B984C884DF80EE80FD800C811B81AA8120
:1009B000B981CE0FD11D0FB6F894DEBF0FBECDBFEB
:0809C000ED010895F894FFCF4A
:1009C8000000000200000000EA000000000074655A
:1009D8006D703A25642C25640068756D3A25642C81
:0409E8002564000082
:00000001FF
