:100000000C9434000C9451000C9451000C94510049
:100010000C9451000C9451000C9451000C9451001C
:100020000C9451000C9451000C9451000C94270234
:100030000C9451000C9451000C9451000C945100FC
:100040000C9451000C9451000C946D000C945100D0
:100050000C9451000C9451000C9451000C945100DC
:100060000C9451000C94510011241FBECFEFD8E026
:10007000DEBFCDBF11E0A0E0B1E0E6E4F5E002C0F4
:1000800005900D92AE30B107D9F721E0AEE0B1E0B6
:1000900001C01D92A132B207E1F70E945E010C94EB
:1000A000A1020C94000080E091E00895E0ECF0E003
:1000B00095838483108288E9818386E08283089512
:1000C000E0ECF0E0908195FFFDCF8093C6000895AD
:1000D0000E94600080E090E008951F920F920FB69A
:1000E0000F9211248F939F93EF93FF9380910F01B1
:1000F0009091C600E82FF0E0E05FFE4F90838F5FA5
:10010000803139F080930F0190910E01891313C053
:1001100007C010920F0180910E01181661F409C0FA
:100120008F5F803119F080930E0105C010920E018F
:1001300002C081E0F8CFFF91EF919F918F910F90D6
:100140000FBE0F901F90189581E020910E019091A5
:100150000F01291301C080E0089590910E01E92F4D
:10016000F0E0E05FFE4F80819F5F903119F0909347
:100170000E01089510920E010895209A8FEB92E1DE
:100180000197F1F700C00000209887EC90E00197FC
:10019000F1F700C0000083B1809581700895FC01E3
:1001A000DB01189BFECF1899FECF90E120E030E0F4
:1001B000189BFECF85ED8A95F1F70000220F331FC3
:1001C000189921601899FECF915091F790E140E085
:1001D00050E0189BFECF85ED8A95F1F70000440FA3
:1001E000551F189941601899FECF915091F798E0EA
:1001F00070E0189BFECF85ED8A95F1F70000770F30
:10020000189971601899FECF915099F711965C93E7
:100210004E9331832083932F920F940F950F79176C
:1002200031F087EE93E08D939C93918380830895C2
:10023000E0E8F0E088E09DE391878087108288E025
:10024000818382E080936F00089510922001E0E89E
:10025000F0E0158214828181856081830895E0E851
:10026000F0E081818A7F81830895161617060CF5C8
:10027000FC01680F791F8FEF9FEFA0E0B0E02191A4
:10028000822728E030E080FF09C0B695A7959795B2
:10029000879541E0842740EA942704C0B695A79546
:1002A000979587952150310971F7E617F70739F7C8
:1002B00008958FEF9FEFA0E0B0E00895CF93DF9314
:1002C000CDB7DEB72C970FB6F894DEBF0FBECDBF0B
:1002D0001A8619861C861B860E9453007C0187E6BD
:1002E00090E00E9456000E941801789411E0512C71
:1002F0000F2EF3E06F2EF02D0F2EF5E19F2EF02D37
:1003000001E00F2EA12CF6E0BF2EF02D689477248B
:1003100072F80F2EC12CF5E0DF2EF02D68948824A2
:1003200081F80E94BD00813039F4BE01655F7F4FC6
:10033000CE0109960E94CF00123061F118F41130FD
:1003400041F0EFCF133009F442C0143009F460C01B
:10035000E8CF99820A83DC82CB828B859C859827A3
:10036000892798279E838D8366E070E0CE010196F1
:100370000E94350198878F83970141E050E068E043
:1003800070E0CE0101960E9436020E942501182DD0
:10039000512CC7CF0E94A400882381F0E1E0F0E057
:1003A000EC0FFD1FE50DF11D40800E94AD004812CD
:1003B00005C0539488E0581201C0162D8091200189
:1003C000882309F4AECF0E942F01162DAACF99825F
:1003D0000A83BC82AB8289859A85982789279827CA
:1003E0009E838D8366E070E0CE0101960E94350108
:1003F00098878F83970141E050E068E070E0CE017C
:1004000001960E9436020E942501172D512C89CF9A
:100410000E94A400882391F0E1E0F0E0EC0FFD1FC2
:10042000E50DF11D40800E94AD00481207C05394B5
:1004300088E0581203C00E942F01102F80912001E4
:10044000882309F46ECF0E942F01102F6ACF1F92CC
:100450000F920FB60F9211248F9381E080932001A9
:100460008F910F900FBE0F901F901895A0E0B0E0F5
:10047000ECE3F2E00C9470025B014A017901D901CE
:1004800013962C9121FF1DC0C0E0D0E0C815D905FE
:10049000D9F08C016C01CA0CDB1CC8010C151D05C0
:1004A00071F00F5F1F4FD7011896ED91FC911997CE
:1004B000B701DC018C910995892B79F305C0219650
:1004C000E5CF80E090E001C0CE01CDB7DEB7ECE033
:1004D0000C948C022F923F924F925F926F927F9278
:1004E0008F929F92AF92BF92CF92DF92EF92FF9244
:1004F0000F931F93CF93DF93CDB7DEB7CA1BDB0BF0
:100500000FB6F894DEBF0FBECDBF09942A88398894
:1005100048885F846E847D848C849B84AA84B9849B
:10052000C884DF80EE80FD800C811B81AA81B981A7
:10053000CE0FD11D0FB6F894DEBF0FBECDBFED01BB
:060540000895F894FFCFBE
:0E05460000000002000000006800000000003D
:00000001FF
