S015000050726F6A65746F5F66696E616C2E73726563C3
S11300000C9434000C9449000C9449000C9449005D
S11300100C9449000C9449000C9449000C94490038
S11300200C9449000C9449000C9449000C94490028
S11300300C9449000C9449000C9449000C94490018
S11300400C9449000C9449000C946D000C944900E4
S11300500C9449000C9449000C9449000C944900F8
S11300600C9449000C94490011241FBECFEFD8E032
S1130070DEBFCDBF11E0A0E0B1E0EAE2F5E002C0EE
S113008005900D92AC31B107D9F70E94A8010C94E8
S113009093020C94000080E091E00895E0ECF0E01D
S11300A095838483108288E9818386E0828308951E
S11300B0E0ECF0E0908195FFFDCF8093C6000895B9
S11300C00E94580080E090E00895E0ECF0E0808128
S11300D08823ECF78091C60008951F920F920FB603
S11300E00F9211240F900FBE0F901F901895209A15
S11300F08FEB92E10197F1F700C00000209887ECA4
S113010090E00197F1F700C0000083B18095817001
S11301100895FC01DB01189BFECF1899FECF90E1F6
S113012020E030E0189BFECF85ED8A95F1F70000C2
S1130130220F331F189921601899FECF915091F71F
S113014090E140E050E0189BFECF85ED8A95F1F7F1
S11301500000440F551F189941601899FECF915023
S113016091F798E070E0189BFECF85ED8A95F1F742
S11301700000770F189971601899FECF915099F784
S113018011965C934E9331832083932F920F940F97
S1130190950F791731F087EE93E08D939C939183BB
S11301A0808308958EE091E00895611102C05C9807
S11301B001C05C9A9BB1907F282F22952F70922BBF
S11301C09BB995E09A95F1F700005D9A95E09A95B0
S11301D0F1F700005D9890EF9A95F1F79BB1907F4D
S11301E0282F2F70922B9BB995E09A95F1F7000078
S11301F05D9A95E09A95F1F700005D9890EF9A95D5
S1130200F1F7611108C0843030F48FE39FE1019766
S1130210F1F700C00000089561E00E94D50081E07C
S113022090E00895549A559A8AB18F608AB95C987F
S11302305D982FEF89EF90E0215080409040E1F7E6
S113024000C000008BB1807F83608BB925E02A95C4
S1130250F1F700005D9A85E08A95F1F700005D985A
S113026090EF9A95F1F78FE19EE40197F1F700C0C2
S1130270000095E09A95F1F700005D9A25E02A9533
S1130280F1F700005D9880EF8A95F1F78FE193E034
S11302900197F1F700C0000095E09A95F1F700008E
S11302A05D9A25E02A95F1F700005D9880EF8A9524
S11302B0F1F78BB1807F82608BB995E09A95F1F765
S11302C000005D9A25E02A95F1F700005D9880EF23
S11302D08A95F1F760E088E20E94D50060E088E04A
S11302E00E94D50060E081E00E94D50060E08CE0CF
S11302F00E94D50060E080E80E94D500089516169B
S113030017060CF5FC01680F791F8FEF9FEFA0E033
S1130310B0E02191822728E030E080FF09C0B69543
S1130320A7959795879541E0842740EA942704C0D0
S1130330B695A795979587952150310971F7E617DA
S1130340F70739F708958FEF9FEFA0E0B0E0089525
S1130350CF93DF93CDB7DEB72C970FB6F894DEBFFB
S11303600FBECDBF1A8619861C861B860E941201F9
S11303700E94D2000E944B007C0187E690E00E941C
S11303804E0078940F2EF5E19F2EF02D01E00F2EF4
S1130390A12CF5E0BF2EF02D0F2EC12CF6E0DF2EA0
S11303A0F02D0E947700813039F4BE01655F7F4FE4
S11303B0CE0109960E94890099820A83BC82AB828D
S11303C08B859C859827892798279E838D8366E053
S11303D070E0CE0101960E947F0198878F83970178
S11303E041E050E068E070E0CE0101960E942802EE
S11303F018E00E9465001150E1F799820A83DC82BB
S1130400CB8289859A859827892798279E838D830F
S113041066E070E0CE0101960E947F0198878F8389
S1130420970141E050E068E070E0CE0101960E943F
S1130430280218E00E9465001150E1F72FEF83EDC8
S113044090E3215080409040E1F700C00000A9CF24
S1130450A0E0B0E0EEE2F2E00C9462025B014A013B
S11304607901D90113962C9121FF1DC0C0E0D0E081
S1130470C815D905D9F08C016C01CA0CDB1CC80164
S11304800C151D0571F00F5F1F4FD7011896ED91E4
S1130490FC911997B701DC018C910995892B79F3AB
S11304A005C02196E5CF80E090E001C0CE01CDB734
S11304B0DEB7ECE00C947E022F923F924F925F9253
S11304C06F927F928F929F92AF92BF92CF92DF9260
S11304D0EF92FF920F931F93CF93DF93CDB7DEB7C5
S11304E0CA1BDB0B0FB6F894DEBF0FBECDBF099459
S11304F02A88398848885F846E847D848C849B84B0
S1130500AA84B984C884DF80EE80FD800C811B81BD
S1130510AA81B981CE0FD11D0FB6F894DEBF0FBEEC
S10D0520CDBFED010895F894FFCF5C
S113052A000000020000000060000000000000005B
S10F053A0002000000000C0100000000A2
S9030000FC
