S015000050726F6A65746F5F66696E616C2E73726563C3
S11300000C9434000C9451000C9451000C94510045
S11300100C9451000C9451000C9451000C94510018
S11300200C9451000C9451000C9451000C94A802AF
S11300300C9451000C9451000C9451000C945100F8
S11300400C9451000C9451000C946D000C945100CC
S11300500C9451000C9451000C9451000C945100D8
S11300600C9451000C94510011241FBECFEFD8E022
S1130070DEBFCDBF11E0A0E0B1E0E8E4F6E002C0ED
S113008005900D92AE30B107D9F721E0AEE0B1E0B2
S113009001C01D92A132B207E1F70E9478010C94CD
S11300A022030C94000080E091E00895E0ECF0E07D
S11300B095838483108288E9818386E0828308950E
S11300C0E0ECF0E0908195FFFDCF8093C6000895A9
S11300D00E94600080E090E008951F920F920FB696
S11300E00F9211248F939F93EF93FF9380910F01AD
S11300F09091C600E82FF0E0E05FFE4F90838F5FA1
S1130100803139F080930F0190910E01891313C04F
S113011007C010920F0180910E01181661F409C0F6
S11301208F5F803119F080930E0105C010920E018B
S113013002C081E0F8CFFF91EF919F918F910F90D2
S11301400FBE0F901F90189581E020910E019091A1
S11301500F01291301C080E0089590910E01E92F49
S1130160F0E0E05FFE4F80819F5F903119F0909343
S11301700E01089510920E010895209A8FEB92E1DA
S11301800197F1F700C00000209887EC90E00197F8
S1130190F1F700C0000083B1809581700895FC01DF
S11301A0DB01189BFECF1899FECF90E120E030E0F0
S11301B0189BFECF85ED8A95F1F70000220F331FBF
S11301C0189921601899FECF915091F790E140E081
S11301D050E0189BFECF85ED8A95F1F70000440F9F
S11301E0551F189941601899FECF915091F798E0E6
S11301F070E0189BFECF85ED8A95F1F70000770F2C
S1130200189971601899FECF915099F711965C93E3
S11302104E9331832083932F920F940F950F791768
S113022031F087EE93E08D939C93918380830895BE
S1130230E0E8F0E088E09DE391878087108288E021
S1130240818382E080936F00089510922001E0E89A
S1130250F0E0158214828181856081830895E0E84D
S1130260F0E081818A7F81830895161617060CF5C4
S1130270FC01680F791F8FEF9FEFA0E0B0E02191A0
S1130280822728E030E080FF09C0B695A7959795AE
S1130290879541E0842740EA942704C0B695A79542
S11302A0979587952150310971F7E617F70739F7C4
S11302B008958FEF9FEFA0E0B0E00895FC019181D5
S11302C09F3F39F48281938180369F4459F083E0C3
S11302D008959E3F49F482819381803A9E4831F487
S11302E082E0089581E0089583E0089583E008950D
S11302F0CF93DF93CDB7DEB764970FB6F894DEBF24
S11303000FBECDBF1A8A198A1C8A1B8A259A219A84
S1130310229A239A0E9453006C0187E690E00E947F
S113032056000E941801789411E000E0612C0F2E11
S1130330F5E14F2EF02D772473940F2E812CF6E0E7
S11303409F2EF02D6894222422F8512C0F2EA12CDC
S1130350F5E0BF2EF02D6894332431F8123009F4FF
S113036044C018F4113041F0F9CF133009F483C0BC
S1130370143009F4AEC0F2CF0E94BD00813039F4CC
S1130380BE016D5E7F4FCE0141960E94CF002FEFDC
S113039083ED90E3215080409040E1F700C00000DD
S11303A049827A82BC82AB828B899C89982789276F
S11303B098279E838D8366E070E0CE0101960E94AB
S11303C0350198278927982798878F83960141E0DC
S11303D050E068E070E0CE0101960E94B7020E94EE
S11303E02501132D00E0652CB9CF0E94A4008823B9
S11303F0C1F1E02EF12C0E94AD00E9E0F0E0EC0F39
S1130400FD1FEE0DFF1D8083E1E0F0E0EC0FFD1F0A
S1130410EE0DFF1D9081891307C0611005C00F5FA9
S11304200830F9F413E01DC00F5F0430B1F4CE01BD
S113043009960E945E01813021F4299A13E0672C09
S113044010C0823021F42A9A13E0672C0AC083304A
S113045031F42B9A13E0672C04C0672C02C013E01C
S1130460672C80912001882309F478CF0E942F0102
S11304702D9A13E073CF2FEF83ED90E3215080404A
S11304809040E1F700C0000049827A829C828B820E
S113049089899A899827892798279E838D8366E07E
S11304A070E0CE0101960E9435019827892798278C
S11304B098878F83960141E050E068E070E0CE01B8
S11304C001960E94B7020E942501122D00E0652CBE
S11304D045CF0E94A400882389F1E1E0F0E0EC0F0D
S11304E0FD1FE00FF11DF0800E94AD00F81209C05D
S11304F0611007C00F5F083009F50E942F01172D06
S11305001DC00F5F0430B1F4CE0109960E945E0154
S1130510813021F4299A13E0672C10C0823021F431
S11305202A9A13E0672C0AC0833031F42B9A13E023
S1130530672C04C0672C02C013E0672C8091200153
S1130540882309F40BCF0E942F012D9A172D06CF73
S11305501F920F920FB60F9211248F9381E0809314
S113056020018F910F900FBE0F901F901895A0E05F
S1130570B0E0EDEBF2E00C94F1025B014A01790189
S1130580D90113962C9121FF1DC0C0E0D0E0C815FD
S1130590D905D9F08C016C01CA0CDB1CC8010C15FF
S11305A01D0571F00F5F1F4FD7011896ED91FC9157
S11305B01997B701DC018C910995892B79F305C052
S11305C02196E5CF80E090E001C0CE01CDB7DEB743
S11305D0ECE00C940D032F923F924F925F926F9236
S11305E07F928F929F92AF92BF92CF92DF92EF92BF
S11305F0FF920F931F93CF93DF93CDB7DEB7CA1B40
S1130600DB0B0FB6F894DEBF0FBECDBF09942A886A
S1130610398848885F846E847D848C849B84AA8412
S1130620B984C884DF80EE80FD800C811B81AA819F
S1130630B981CE0FD11D0FB6F894DEBF0FBECDBF6A
S10B0640ED010895F894FFCFC9
S1110648000000020000000068000000000036
S9030000FC
