S015000050726F6A65746F5F66696E616C2E73726563C3
S11300000C9434000C9449000C9449000C9449005D
S11300100C9449000C9449000C9449000C94490038
S11300200C9449000C9449000C9449000C94490028
S11300300C9449000C9449000C9449000C94490018
S11300400C9449000C9449000C9449000C94490008
S11300500C9449000C9449000C9449000C944900F8
S11300600C9449000C94490011241FBECFEFD8E032
S1130070DEBFCDBF11E0A0E0B1E0E4EAF9E002C0E8
S113008005900D92A433B107D9F70E94F8000C949F
S1130090D0040C94000080E091E00895611102C046
S11300A05C9801C05C9A9BB1907F282F22952F7099
S11300B0922B9BB995E09A95F1F700005D9A95E033
S11300C09A95F1F700005D9890EF9A95F1F79BB13E
S11300D0907F282F2F70922B9BB995E09A95F1F77A
S11300E000005D9A95E09A95F1F700005D9890EF15
S11300F09A95F1F7611108C0843030F48FE39FE1E1
S11301000197F1F700C00000089561E00E944E00DD
S113011081E090E00895549A559A8AB18F608AB923
S11301205C985D982FEF89EF90E0215080409040DB
S1130130E1F700C000008BB1807F83608BB925E0BC
S11301402A95F1F700005D9A85E08A95F1F70000A1
S11301505D9890EF9A95F1F78FE19EE40197F1F79E
S113016000C0000095E09A95F1F700005D9A25E043
S11301702A95F1F700005D9880EF8A95F1F78FE1F9
S113018093E00197F1F700C0000095E09A95F1F72C
S113019000005D9A25E02A95F1F700005D9880EF54
S11301A08A95F1F78BB1807F82608BB995E09A953F
S11301B0F1F700005D9A25E02A95F1F700005D98BB
S11301C080EF8A95F1F760E088E20E944E0060E0DB
S11301D088E00E944E0060E081E00E944E0060E0F2
S11301E08CE00E944E0060E080E80E944E0008957A
S11301F09F92AF92BF92CF92DF92EF92FF920F93B2
S11302001F93CF93DF930E948B000E944B00A82E74
S1130210992E87B1876087B92FEF47EA51E62150BD
S113022040405040E1F700C0000060E081E00E94DF
S11302304E001F921F928EE091E09F938F939F92A6
S1130240AF920E94F6010F900F900F900F900F90B5
S11302500F90B12C00E010E0C0E0D0E00F2EFEE1E2
S1130260CF2EF1E0DF2EF02D0F2EF9E2EF2EF1E08C
S1130270FF2EF02D209A8FEB92E10197F1F700C049
S11302800000209887EC90E00197F1F700C000008F
S1130290189BB39491E0B9128CC0189BFECF1899A7
S11302A0FECF409A80E1189BFECF25ED2A95F1F709
S11302B00000CC0FDD1F1899C1601899FECF815042
S11302C091F7419A80E1189BFECF45ED4A95F1F7ED
S11302D00000000F111F189901601899FECF81507A
S11302E091F7429A88E0189BFECF55ED5A95F1F7A5
S11302F0000093B11899FECF8150A9F760E081E026
S11303000E944E009801ADECBCEC0E94E70196956A
S113031087959695879596958795AC01440F551FBB
S11303209C01220F331F220F331F220F331F240F70
S1130330351FA801421B530B9A013F934F939F9380
S11303408F93DF92CF929F92AF920E94F60160E06A
S113035080EC0E944E009E01ADECBCEC0E94E701D3
S1130360969587959695879596958795AC01440FB4
S1130370551F9C01220F331F220F331F220F331FDF
S1130380240F351FAE01421B530B9A013F934F9329
S11303909F938F93FF92EF929F92AF920E94F601E8
S11303A08DB79EB740960FB6F8949EBF0FBE8DBF13
S11303B061CF80E090E0DF91CF911F910F91FF908A
S11303C0EF90DF90CF90BF90AF909F900895A29F41
S11303D0B001B39FC001A39F700D811D1124911D15
S11303E0B29F700D811D1124911D0895A0E0B0E00D
S11303F0ECEFF1E00C94A904AE01475F5F4F6F810D
S113040078858D819E810E940802E2E00C94C504E7
S1130410ABE0B0E0EEE0F2E00C9499046C017B01F7
S11304208A01FC0117821682838181FFCCC1CE012F
S113043001963C01F6019381F70193FD859193FFA9
S113044081917F01882309F4BAC1853239F493FD7F
S1130450859193FF81917F01853229F4B60190E063
S11304600E94FF03E7CF912C212C312CFFE1F315DF
S1130470D8F08B3279F038F4803279F08332A1F4F9
S1130480232D20611DC08D3261F0803369F4232D4A
S1130490216016C0832D8260382EE32DE4603E2E49
S11304A02AC0F32DF8601DC037FC2DC020ED280FA5
S11304B02A3040F08E32B9F436FC81C1232D2064F9
S11304C0322E19C036FE06C08AE0989E200D1124F3
S11304D0922E11C0EAE02E9E200D1124222EF32D1F
S11304E0F0623F2E08C08C3621F4832D8068382EAC
S11304F002C0883641F4F70193FD859193FF819101
S11305007F018111B3CF982F9F7D9554933028F4A8
S11305100C5F1F4F9FE399830DC0833631F08337FF
S113052071F0833509F059C021C0F80180818983B5
S11305300E5F1F4F88248394912C530113C028010C
S1130540F2E04F0E511CF801A080B18036FE03C0CA
S1130550692D70E002C06FEF7FEFC5010E94F403C4
S11305604C018201F32DFF773F2E16C0280122E0B3
S1130570420E511CF801A080B18036FE03C0692DE3
S113058070E002C06FEF7FEFC5010E94E9034C01E8
S1130590F32DF0683F2E820133FC1BC0822D90E0C6
S11305A088169906B0F4B60180E290E00E94FF0339
S11305B02A94F4CFF50137FC859137FE81915F01D0
S11305C0B60190E00E94FF0321102A9421E0821AD0
S11305D091088114910471F7E8C0843611F08936CA
S11305E041F5F80137FE07C06081718182819381F2
S11305F00C5F1F4F08C060817181072E000C880BAF
S1130600990B0E5F1F4FF32DFF763F2E97FF09C006
S113061090958095709561957F4F8F4F9F4FF068AF
S11306203F2E2AE030E0A3010E943B04882E861866
S113063045C0853731F4232D2F7EB22E2AE030E0D9
S113064025C0932D997FB92E8F36C1F018F48835C3
S113065079F0B5C0803719F0883721F0B0C0E92FA0
S1130660E061BE2EB4FE0DC0FB2DF460BF2E09C0A8
S113067034FE0AC0292F2660B22E06C028E030E0DE
S113068005C020E130E002C020E132E0F801B7FE0D
S113069007C060817181828193810C5F1F4F06C006
S11306A06081718180E090E00E5F1F4FA3010E9482
S11306B03B04882E8618FB2DFF773F2E36FE0DC097
S11306C0232D2E7FA22E891458F434FE0BC032FC45
S11306D009C0832D8E7EA82E05C0B82CA32C03C080
S11306E0B82C01C0B92CA4FE0FC0FE01E80DF11D09
S11306F08081803321F49A2D997EA92E09C0A2FE0F
S113070006C0B394B39404C08A2D867809F0B394D8
S1130710A3FC11C0A0FE06C0B21488F4280C922CCD
S11307209B180EC0B21460F4B60180E290E00E94FF
S1130730FF03B394F7CFB21418F42B1802C0982C0B
S1130740212CA4FE10C0B60180E390E00E94FF03B8
S1130750A2FE17C0A1FC03C088E790E002C088E5B0
S113076090E0B6010CC08A2D867859F0A1FE02C033
S11307708BE201C080E2A7FC8DE2B60190E00E940A
S1130780FF03891438F4B60180E390E00E94FF036C
S11307909A94F7CF8A94F301E80DF11D8081B60194
S11307A090E00E94FF038110F5CF222009F442CE8D
S11307B0B60180E290E00E94FF032A94F6CFF6018E
S11307C08681978102C08FEF9FEF2B96E2E10C9414
S11307D0B504FC010590615070400110D8F7809574
S11307E090958E0F9F1F0895FC01615070400190F9
S11307F00110D8F7809590958E0F9F1F08950F9341
S11308001F93CF93DF93FB01238121FD03C08FEF5F
S11308109FEF2CC022FF16C0468157812481358169
S11308204217530744F4A081B1819D012F5F3F4FCC
S1130830318320838C93268137812F5F3F4F378309
S1130840268314C08B01EC01FB010084F185E02DAB
S11308500995892BE1F6D80116968D919C911797ED
S1130860019617969C938E931697CE01DF91CF91A4
S11308701F910F910895FA01AA27283051F12031D0
S113088081F1E8946F936E7F6E5F7F4F8F4F9F4F20
S1130890AF4FB1E03ED0B4E03CD0670F781F891F62
S11308A09A1FA11D680F791F8A1F911DA11D6A0F30
S11308B0711D811D911DA11D20D009F468943F91E3
S11308C02AE0269F11243019305D3193DEF6CF01E2
S11308D00895462F4770405D4193B3E00FD0C9F7A8
S11308E0F6CF462F4F70405D4A3318F0495D31FD15
S11308F04052419302D0A9F7EACFB4E0A695979568
S1130900879577956795BA95C9F70097610571053D
S113091008959B01AC010A2E069457954795379587
S11309202795BA95C9F7620F731F841F951FA01DE1
S113093008952F923F924F925F926F927F928F927F
S11309409F92AF92BF92CF92DF92EF92FF920F935A
S11309501F93CF93DF93CDB7DEB7CA1BDB0B0FB664
S1130960F894DEBF0FBECDBF09942A883988488821
S11309705F846E847D848C849B84AA84B984C884B7
S1130980DF80EE80FD800C811B81AA81B981CE0FAE
S1130990D11D0FB6F894DEBF0FBECDBFED01089593
S10709A0F894FFCFF5
S11309A400000002000000008500000000006368ED
S11309B4757272617371756569726125630074651A
S11309C46D703A25642C25640068756D3A25642C91
S10709D42564000092
S9030000FC
